{
  "_format": "hh-sol-artifact-1",
  "contractName": "CCIPContract",
  "sourceName": "contracts/CCIPContract.sol",
  "abi": [
    {
      "inputs": [
        {
          "internalType": "address",
          "name": "_router",
          "type": "address"
        },
        {
          "internalType": "address",
          "name": "_link",
          "type": "address"
        }
      ],
      "stateMutability": "nonpayable",
      "type": "constructor"
    },
    {
      "inputs": [
        {
          "internalType": "uint64",
          "name": "destinationChainSelector",
          "type": "uint64"
        }
      ],
      "name": "DestinationChainNotAllowed",
      "type": "error"
    },
    {
      "inputs": [
        {
          "internalType": "address",
          "name": "owner",
          "type": "address"
        },
        {
          "internalType": "address",
          "name": "target",
          "type": "address"
        },
        {
          "internalType": "uint256",
          "name": "value",
          "type": "uint256"
        }
      ],
      "name": "FailedToWithdrawEth",
      "type": "error"
    },
    {
      "inputs": [],
      "name": "InvalidReceiverAddress",
      "type": "error"
    },
    {
      "inputs": [
        {
          "internalType": "address",
          "name": "router",
          "type": "address"
        }
      ],
      "name": "InvalidRouter",
      "type": "error"
    },
    {
      "inputs": [
        {
          "internalType": "uint256",
          "name": "currentBalance",
          "type": "uint256"
        },
        {
          "internalType": "uint256",
          "name": "calculatedFees",
          "type": "uint256"
        }
      ],
      "name": "NotEnoughBalance",
      "type": "error"
    },
    {
      "inputs": [],
      "name": "NothingToWithdraw",
      "type": "error"
    },
    {
      "inputs": [
        {
          "internalType": "address",
          "name": "sender",
          "type": "address"
        }
      ],
      "name": "SenderNotAllowed",
      "type": "error"
    },
    {
      "inputs": [
        {
          "internalType": "uint64",
          "name": "sourceChainSelector",
          "type": "uint64"
        }
      ],
      "name": "SourceChainNotAllowed",
      "type": "error"
    },
    {
      "anonymous": false,
      "inputs": [
        {
          "indexed": true,
          "internalType": "bytes32",
          "name": "messageId",
          "type": "bytes32"
        },
        {
          "indexed": true,
          "internalType": "uint64",
          "name": "sourceChainSelector",
          "type": "uint64"
        },
        {
          "indexed": false,
          "internalType": "address",
          "name": "sender",
          "type": "address"
        },
        {
          "indexed": false,
          "internalType": "string",
          "name": "text",
          "type": "string"
        },
        {
          "indexed": false,
          "internalType": "address",
          "name": "token",
          "type": "address"
        },
        {
          "indexed": false,
          "internalType": "uint256",
          "name": "tokenAmount",
          "type": "uint256"
        }
      ],
      "name": "MessageReceived",
      "type": "event"
    },
    {
      "anonymous": false,
      "inputs": [
        {
          "indexed": true,
          "internalType": "bytes32",
          "name": "messageId",
          "type": "bytes32"
        },
        {
          "indexed": true,
          "internalType": "uint64",
          "name": "destinationChainSelector",
          "type": "uint64"
        },
        {
          "indexed": false,
          "internalType": "address",
          "name": "receiver",
          "type": "address"
        },
        {
          "indexed": false,
          "internalType": "string",
          "name": "text",
          "type": "string"
        },
        {
          "indexed": false,
          "internalType": "address",
          "name": "token",
          "type": "address"
        },
        {
          "indexed": false,
          "internalType": "uint256",
          "name": "tokenAmount",
          "type": "uint256"
        },
        {
          "indexed": false,
          "internalType": "address",
          "name": "feeToken",
          "type": "address"
        },
        {
          "indexed": false,
          "internalType": "uint256",
          "name": "fees",
          "type": "uint256"
        }
      ],
      "name": "MessageSent",
      "type": "event"
    },
    {
      "anonymous": false,
      "inputs": [
        {
          "indexed": true,
          "internalType": "address",
          "name": "from",
          "type": "address"
        },
        {
          "indexed": true,
          "internalType": "address",
          "name": "to",
          "type": "address"
        }
      ],
      "name": "OwnershipTransferRequested",
      "type": "event"
    },
    {
      "anonymous": false,
      "inputs": [
        {
          "indexed": true,
          "internalType": "address",
          "name": "from",
          "type": "address"
        },
        {
          "indexed": true,
          "internalType": "address",
          "name": "to",
          "type": "address"
        }
      ],
      "name": "OwnershipTransferred",
      "type": "event"
    },
    {
      "inputs": [],
      "name": "acceptOwnership",
      "outputs": [],
      "stateMutability": "nonpayable",
      "type": "function"
    },
    {
      "inputs": [
        {
          "internalType": "uint64",
          "name": "_destinationChainSelector",
          "type": "uint64"
        },
        {
          "internalType": "bool",
          "name": "allowed",
          "type": "bool"
        }
      ],
      "name": "allowlistDestinationChain",
      "outputs": [],
      "stateMutability": "nonpayable",
      "type": "function"
    },
    {
      "inputs": [
        {
          "internalType": "address",
          "name": "_sender",
          "type": "address"
        },
        {
          "internalType": "bool",
          "name": "allowed",
          "type": "bool"
        }
      ],
      "name": "allowlistSender",
      "outputs": [],
      "stateMutability": "nonpayable",
      "type": "function"
    },
    {
      "inputs": [
        {
          "internalType": "uint64",
          "name": "_sourceChainSelector",
          "type": "uint64"
        },
        {
          "internalType": "bool",
          "name": "allowed",
          "type": "bool"
        }
      ],
      "name": "allowlistSourceChain",
      "outputs": [],
      "stateMutability": "nonpayable",
      "type": "function"
    },
    {
      "inputs": [
        {
          "internalType": "uint64",
          "name": "",
          "type": "uint64"
        }
      ],
      "name": "allowlistedDestinationChains",
      "outputs": [
        {
          "internalType": "bool",
          "name": "",
          "type": "bool"
        }
      ],
      "stateMutability": "view",
      "type": "function"
    },
    {
      "inputs": [
        {
          "internalType": "address",
          "name": "",
          "type": "address"
        }
      ],
      "name": "allowlistedSenders",
      "outputs": [
        {
          "internalType": "bool",
          "name": "",
          "type": "bool"
        }
      ],
      "stateMutability": "view",
      "type": "function"
    },
    {
      "inputs": [
        {
          "internalType": "uint64",
          "name": "",
          "type": "uint64"
        }
      ],
      "name": "allowlistedSourceChains",
      "outputs": [
        {
          "internalType": "bool",
          "name": "",
          "type": "bool"
        }
      ],
      "stateMutability": "view",
      "type": "function"
    },
    {
      "inputs": [
        {
          "components": [
            {
              "internalType": "bytes32",
              "name": "messageId",
              "type": "bytes32"
            },
            {
              "internalType": "uint64",
              "name": "sourceChainSelector",
              "type": "uint64"
            },
            {
              "internalType": "bytes",
              "name": "sender",
              "type": "bytes"
            },
            {
              "internalType": "bytes",
              "name": "data",
              "type": "bytes"
            },
            {
              "components": [
                {
                  "internalType": "address",
                  "name": "token",
                  "type": "address"
                },
                {
                  "internalType": "uint256",
                  "name": "amount",
                  "type": "uint256"
                }
              ],
              "internalType": "struct Client.EVMTokenAmount[]",
              "name": "destTokenAmounts",
              "type": "tuple[]"
            }
          ],
          "internalType": "struct Client.Any2EVMMessage",
          "name": "message",
          "type": "tuple"
        }
      ],
      "name": "ccipReceive",
      "outputs": [],
      "stateMutability": "nonpayable",
      "type": "function"
    },
    {
      "inputs": [],
      "name": "getLastReceivedMessageDetails",
      "outputs": [
        {
          "internalType": "bytes32",
          "name": "messageId",
          "type": "bytes32"
        },
        {
          "internalType": "string",
          "name": "text",
          "type": "string"
        },
        {
          "internalType": "address",
          "name": "tokenAddress",
          "type": "address"
        },
        {
          "internalType": "uint256",
          "name": "tokenAmount",
          "type": "uint256"
        }
      ],
      "stateMutability": "view",
      "type": "function"
    },
    {
      "inputs": [],
      "name": "getRouter",
      "outputs": [
        {
          "internalType": "address",
          "name": "",
          "type": "address"
        }
      ],
      "stateMutability": "view",
      "type": "function"
    },
    {
      "inputs": [],
      "name": "owner",
      "outputs": [
        {
          "internalType": "address",
          "name": "",
          "type": "address"
        }
      ],
      "stateMutability": "view",
      "type": "function"
    },
    {
      "inputs": [
        {
          "internalType": "uint64",
          "name": "_destinationChainSelector",
          "type": "uint64"
        },
        {
          "internalType": "address",
          "name": "_receiver",
          "type": "address"
        },
        {
          "internalType": "string",
          "name": "_text",
          "type": "string"
        },
        {
          "internalType": "address",
          "name": "_token",
          "type": "address"
        },
        {
          "internalType": "uint256",
          "name": "_amount",
          "type": "uint256"
        }
      ],
      "name": "sendMessagePayLINK",
      "outputs": [
        {
          "internalType": "bytes32",
          "name": "messageId",
          "type": "bytes32"
        }
      ],
      "stateMutability": "nonpayable",
      "type": "function"
    },
    {
      "inputs": [
        {
          "internalType": "uint64",
          "name": "_destinationChainSelector",
          "type": "uint64"
        },
        {
          "internalType": "address",
          "name": "_receiver",
          "type": "address"
        },
        {
          "internalType": "string",
          "name": "_text",
          "type": "string"
        },
        {
          "internalType": "address",
          "name": "_token",
          "type": "address"
        },
        {
          "internalType": "uint256",
          "name": "_amount",
          "type": "uint256"
        }
      ],
      "name": "sendMessagePayNative",
      "outputs": [
        {
          "internalType": "bytes32",
          "name": "messageId",
          "type": "bytes32"
        }
      ],
      "stateMutability": "nonpayable",
      "type": "function"
    },
    {
      "inputs": [
        {
          "internalType": "bytes4",
          "name": "interfaceId",
          "type": "bytes4"
        }
      ],
      "name": "supportsInterface",
      "outputs": [
        {
          "internalType": "bool",
          "name": "",
          "type": "bool"
        }
      ],
      "stateMutability": "view",
      "type": "function"
    },
    {
      "inputs": [
        {
          "internalType": "address",
          "name": "to",
          "type": "address"
        }
      ],
      "name": "transferOwnership",
      "outputs": [],
      "stateMutability": "nonpayable",
      "type": "function"
    },
    {
      "inputs": [
        {
          "internalType": "address",
          "name": "_beneficiary",
          "type": "address"
        }
      ],
      "name": "withdraw",
      "outputs": [],
      "stateMutability": "nonpayable",
      "type": "function"
    },
    {
      "inputs": [
        {
          "internalType": "address",
          "name": "_beneficiary",
          "type": "address"
        },
        {
          "internalType": "address",
          "name": "_token",
          "type": "address"
        }
      ],
      "name": "withdrawToken",
      "outputs": [],
      "stateMutability": "nonpayable",
      "type": "function"
    },
    {
      "stateMutability": "payable",
      "type": "receive"
    }
  ],
  "bytecode": "0x60a06040523480156200001157600080fd5b5060405162003a9938038062003a998339818101604052810190620000379190620003c4565b3380600084600073ffffffffffffffffffffffffffffffffffffffff168173ffffffffffffffffffffffffffffffffffffffff1603620000b15760006040517fd7f73334000000000000000000000000000000000000000000000000000000008152600401620000a891906200041c565b60405180910390fd5b8073ffffffffffffffffffffffffffffffffffffffff1660808173ffffffffffffffffffffffffffffffffffffffff168152505050600073ffffffffffffffffffffffffffffffffffffffff168273ffffffffffffffffffffffffffffffffffffffff160362000158576040517f08c379a00000000000000000000000000000000000000000000000000000000081526004016200014f906200049a565b60405180910390fd5b816000806101000a81548173ffffffffffffffffffffffffffffffffffffffff021916908373ffffffffffffffffffffffffffffffffffffffff160217905550600073ffffffffffffffffffffffffffffffffffffffff168173ffffffffffffffffffffffffffffffffffffffff1614620001df57620001de816200022b60201b60201c565b5b50505080600960006101000a81548173ffffffffffffffffffffffffffffffffffffffff021916908373ffffffffffffffffffffffffffffffffffffffff16021790555050506200052e565b3373ffffffffffffffffffffffffffffffffffffffff168173ffffffffffffffffffffffffffffffffffffffff16036200029c576040517f08c379a000000000000000000000000000000000000000000000000000000000815260040162000293906200050c565b60405180910390fd5b80600160006101000a81548173ffffffffffffffffffffffffffffffffffffffff021916908373ffffffffffffffffffffffffffffffffffffffff1602179055508073ffffffffffffffffffffffffffffffffffffffff1660008054906101000a900473ffffffffffffffffffffffffffffffffffffffff1673ffffffffffffffffffffffffffffffffffffffff167fed8889f560326eb138920d842192f0eb3dd22b4f139c87a2c57538e05bae127860405160405180910390a350565b600080fd5b600073ffffffffffffffffffffffffffffffffffffffff82169050919050565b60006200038c826200035f565b9050919050565b6200039e816200037f565b8114620003aa57600080fd5b50565b600081519050620003be8162000393565b92915050565b60008060408385031215620003de57620003dd6200035a565b5b6000620003ee85828601620003ad565b92505060206200040185828601620003ad565b9150509250929050565b62000416816200037f565b82525050565b60006020820190506200043360008301846200040b565b92915050565b600082825260208201905092915050565b7f43616e6e6f7420736574206f776e657220746f207a65726f0000000000000000600082015250565b60006200048260188362000439565b91506200048f826200044a565b602082019050919050565b60006020820190508181036000830152620004b58162000473565b9050919050565b7f43616e6e6f74207472616e7366657220746f2073656c66000000000000000000600082015250565b6000620004f460178362000439565b91506200050182620004bc565b602082019050919050565b600060208201905081810360008301526200052781620004e5565b9050919050565b60805161354f6200054a60003960006113fb015261354f6000f3fe6080604052600436106101025760003560e01c806379ba50971161009557806396d3b83d1161006457806396d3b83d14610367578063b0f479a114610390578063db04fa49146103bb578063eab5b02c146103e4578063f2fde38b1461040d57610109565b806379ba5097146102bf57806385572ffb146102d65780638da5cb5b146102ff5780638f3f4e1a1461032a57610109565b80634030d521116100d15780634030d521146101df57806351cff8d91461021c5780636159ada11461024557806375c67c661461028257610109565b806301ffc9a71461010e5780631dd11dac1461014b578063263596a5146101885780633aeac4e1146101b657610109565b3661010957005b600080fd5b34801561011a57600080fd5b5061013560048036038101906101309190611f19565b610436565b6040516101429190611f61565b60405180910390f35b34801561015757600080fd5b50610172600480360381019061016d91906120b5565b610508565b60405161017f9190612168565b60405180910390f35b34801561019457600080fd5b5061019d61089c565b6040516101ad9493929190612231565b60405180910390f35b3480156101c257600080fd5b506101dd60048036038101906101d8919061227d565b610968565b005b3480156101eb57600080fd5b50610206600480360381019061020191906122bd565b610a58565b6040516102139190611f61565b60405180910390f35b34801561022857600080fd5b50610243600480360381019061023e91906122ea565b610a78565b005b34801561025157600080fd5b5061026c600480360381019061026791906122ea565b610b76565b6040516102799190611f61565b60405180910390f35b34801561028e57600080fd5b506102a960048036038101906102a491906122bd565b610b96565b6040516102b69190611f61565b60405180910390f35b3480156102cb57600080fd5b506102d4610bb6565b005b3480156102e257600080fd5b506102fd60048036038101906102f8919061233b565b610d4b565b005b34801561030b57600080fd5b50610314610dd7565b6040516103219190612384565b60405180910390f35b34801561033657600080fd5b50610351600480360381019061034c91906120b5565b610e00565b60405161035e9190612168565b60405180910390f35b34801561037357600080fd5b5061038e600480360381019061038991906123cb565b6113ac565b005b34801561039c57600080fd5b506103a56113f7565b6040516103b29190612384565b60405180910390f35b3480156103c757600080fd5b506103e260048036038101906103dd91906123cb565b61141f565b005b3480156103f057600080fd5b5061040b6004803603810190610406919061240b565b61146a565b005b34801561041957600080fd5b50610434600480360381019061042f91906122ea565b6114cd565b005b60007f85572ffb000000000000000000000000000000000000000000000000000000007bffffffffffffffffffffffffffffffffffffffffffffffffffffffff1916827bffffffffffffffffffffffffffffffffffffffffffffffffffffffff1916148061050157507f01ffc9a7000000000000000000000000000000000000000000000000000000007bffffffffffffffffffffffffffffffffffffffffffffffffffffffff1916827bffffffffffffffffffffffffffffffffffffffffffffffffffffffff1916145b9050919050565b60006105126114e1565b86600660008267ffffffffffffffff1667ffffffffffffffff16815260200190815260200160002060009054906101000a900460ff1661058957806040517f206abad7000000000000000000000000000000000000000000000000000000008152600401610580919061245a565b60405180910390fd5b86600073ffffffffffffffffffffffffffffffffffffffff168173ffffffffffffffffffffffffffffffffffffffff16036105f0576040517fa05ff47e00000000000000000000000000000000000000000000000000000000815260040160405180910390fd5b600061060189898989896000611571565b905060003073ffffffffffffffffffffffffffffffffffffffff1663b0f479a16040518163ffffffff1660e01b8152600401602060405180830381865afa158015610650573d6000803e3d6000fd5b505050506040513d601f19601f82011682018060405250810190610674919061248a565b905060008173ffffffffffffffffffffffffffffffffffffffff166320487ded8d856040518363ffffffff1660e01b81526004016106b3929190612693565b602060405180830381865afa1580156106d0573d6000803e3d6000fd5b505050506040513d601f19601f820116820180604052508101906106f491906126d8565b90504781111561073d5747816040517f8f0f4206000000000000000000000000000000000000000000000000000000008152600401610734929190612705565b60405180910390fd5b8773ffffffffffffffffffffffffffffffffffffffff1663095ea7b383896040518363ffffffff1660e01b815260040161077892919061272e565b6020604051808303816000875af1158015610797573d6000803e3d6000fd5b505050506040513d601f19601f820116820180604052508101906107bb919061276c565b508173ffffffffffffffffffffffffffffffffffffffff166396f4e9f9828e866040518463ffffffff1660e01b81526004016107f8929190612693565b60206040518083038185885af1158015610816573d6000803e3d6000fd5b50505050506040513d601f19601f8201168201806040525081019061083b91906127c5565b95508b67ffffffffffffffff16867f437cb3c5ba4364504dda6ba3c906ffb0897c7beeb1675f3aaf22a1b9a99b39948d8d8d8d8d600089604051610885979695949392919061282e565b60405180910390a350505050509695505050505050565b600060606000806002546005600360009054906101000a900473ffffffffffffffffffffffffffffffffffffffff166004548280546108da906128c7565b80601f0160208091040260200160405190810160405280929190818152602001828054610906906128c7565b80156109535780601f1061092857610100808354040283529160200191610953565b820191906000526020600020905b81548152906001019060200180831161093657829003601f168201915b50505050509250935093509350935090919293565b6109706114e1565b60008173ffffffffffffffffffffffffffffffffffffffff166370a08231306040518263ffffffff1660e01b81526004016109ab9190612384565b602060405180830381865afa1580156109c8573d6000803e3d6000fd5b505050506040513d601f19601f820116820180604052508101906109ec91906126d8565b905060008103610a28576040517fd0d04f6000000000000000000000000000000000000000000000000000000000815260040160405180910390fd5b610a5383828473ffffffffffffffffffffffffffffffffffffffff166116c89092919063ffffffff16565b505050565b60076020528060005260406000206000915054906101000a900460ff1681565b610a806114e1565b600047905060008103610abf576040517fd0d04f6000000000000000000000000000000000000000000000000000000000815260040160405180910390fd5b60008273ffffffffffffffffffffffffffffffffffffffff1682604051610ae590612929565b60006040518083038185875af1925050503d8060008114610b22576040519150601f19603f3d011682016040523d82523d6000602084013e610b27565b606091505b5050905080610b71573383836040517f9d11f563000000000000000000000000000000000000000000000000000000008152600401610b689392919061293e565b60405180910390fd5b505050565b60086020528060005260406000206000915054906101000a900460ff1681565b60066020528060005260406000206000915054906101000a900460ff1681565b600160009054906101000a900473ffffffffffffffffffffffffffffffffffffffff1673ffffffffffffffffffffffffffffffffffffffff163373ffffffffffffffffffffffffffffffffffffffff1614610c46576040517f08c379a0000000000000000000000000000000000000000000000000000000008152600401610c3d906129c1565b60405180910390fd5b60008060009054906101000a900473ffffffffffffffffffffffffffffffffffffffff169050336000806101000a81548173ffffffffffffffffffffffffffffffffffffffff021916908373ffffffffffffffffffffffffffffffffffffffff1602179055506000600160006101000a81548173ffffffffffffffffffffffffffffffffffffffff021916908373ffffffffffffffffffffffffffffffffffffffff1602179055503373ffffffffffffffffffffffffffffffffffffffff168173ffffffffffffffffffffffffffffffffffffffff167f8be0079c531659141344cd1fd0a4f28419497f9722a3daafe3b4186f6b6457e060405160405180910390a350565b610d536113f7565b73ffffffffffffffffffffffffffffffffffffffff163373ffffffffffffffffffffffffffffffffffffffff1614610dc257336040517fd7f73334000000000000000000000000000000000000000000000000000000008152600401610db99190612384565b60405180910390fd5b610dd481610dcf90612d14565b61174e565b50565b60008060009054906101000a900473ffffffffffffffffffffffffffffffffffffffff16905090565b6000610e0a6114e1565b86600660008267ffffffffffffffff1667ffffffffffffffff16815260200190815260200160002060009054906101000a900460ff16610e8157806040517f206abad7000000000000000000000000000000000000000000000000000000008152600401610e78919061245a565b60405180910390fd5b86600073ffffffffffffffffffffffffffffffffffffffff168173ffffffffffffffffffffffffffffffffffffffff1603610ee8576040517fa05ff47e00000000000000000000000000000000000000000000000000000000815260040160405180910390fd5b6000610f1a8989898989600960009054906101000a900473ffffffffffffffffffffffffffffffffffffffff16611571565b905060003073ffffffffffffffffffffffffffffffffffffffff1663b0f479a16040518163ffffffff1660e01b8152600401602060405180830381865afa158015610f69573d6000803e3d6000fd5b505050506040513d601f19601f82011682018060405250810190610f8d919061248a565b905060008173ffffffffffffffffffffffffffffffffffffffff166320487ded8d856040518363ffffffff1660e01b8152600401610fcc929190612693565b602060405180830381865afa158015610fe9573d6000803e3d6000fd5b505050506040513d601f19601f8201168201806040525081019061100d91906126d8565b9050600960009054906101000a900473ffffffffffffffffffffffffffffffffffffffff1673ffffffffffffffffffffffffffffffffffffffff166370a08231306040518263ffffffff1660e01b815260040161106a9190612384565b602060405180830381865afa158015611087573d6000803e3d6000fd5b505050506040513d601f19601f820116820180604052508101906110ab91906126d8565b81111561118c57600960009054906101000a900473ffffffffffffffffffffffffffffffffffffffff1673ffffffffffffffffffffffffffffffffffffffff166370a08231306040518263ffffffff1660e01b815260040161110d9190612384565b602060405180830381865afa15801561112a573d6000803e3d6000fd5b505050506040513d601f19601f8201168201806040525081019061114e91906126d8565b816040517f8f0f4206000000000000000000000000000000000000000000000000000000008152600401611183929190612705565b60405180910390fd5b600960009054906101000a900473ffffffffffffffffffffffffffffffffffffffff1673ffffffffffffffffffffffffffffffffffffffff1663095ea7b383836040518363ffffffff1660e01b81526004016111e992919061272e565b6020604051808303816000875af1158015611208573d6000803e3d6000fd5b505050506040513d601f19601f8201168201806040525081019061122c919061276c565b508773ffffffffffffffffffffffffffffffffffffffff1663095ea7b383896040518363ffffffff1660e01b815260040161126892919061272e565b6020604051808303816000875af1158015611287573d6000803e3d6000fd5b505050506040513d601f19601f820116820180604052508101906112ab919061276c565b508173ffffffffffffffffffffffffffffffffffffffff166396f4e9f98d856040518363ffffffff1660e01b81526004016112e7929190612693565b6020604051808303816000875af1158015611306573d6000803e3d6000fd5b505050506040513d601f19601f8201168201806040525081019061132a91906127c5565b95508b67ffffffffffffffff16867f437cb3c5ba4364504dda6ba3c906ffb0897c7beeb1675f3aaf22a1b9a99b39948d8d8d8d8d600960009054906101000a900473ffffffffffffffffffffffffffffffffffffffff1689604051611395979695949392919061282e565b60405180910390a350505050509695505050505050565b6113b46114e1565b80600660008467ffffffffffffffff1667ffffffffffffffff16815260200190815260200160002060006101000a81548160ff0219169083151502179055505050565b60007f0000000000000000000000000000000000000000000000000000000000000000905090565b6114276114e1565b80600760008467ffffffffffffffff1667ffffffffffffffff16815260200190815260200160002060006101000a81548160ff0219169083151502179055505050565b6114726114e1565b80600860008473ffffffffffffffffffffffffffffffffffffffff1673ffffffffffffffffffffffffffffffffffffffff16815260200190815260200160002060006101000a81548160ff0219169083151502179055505050565b6114d56114e1565b6114de816119f9565b50565b60008054906101000a900473ffffffffffffffffffffffffffffffffffffffff1673ffffffffffffffffffffffffffffffffffffffff163373ffffffffffffffffffffffffffffffffffffffff161461156f576040517f08c379a000000000000000000000000000000000000000000000000000000000815260040161156690612d73565b60405180910390fd5b565b611579611e38565b6000600167ffffffffffffffff811115611596576115956129e6565b5b6040519080825280602002602001820160405280156115cf57816020015b6115bc611e7d565b8152602001906001900390816115b45790505b50905060405180604001604052808673ffffffffffffffffffffffffffffffffffffffff168152602001858152508160008151811061161157611610612d93565b5b60200260200101819052506040518060a00160405280896040516020016116389190612384565b6040516020818303038152906040528152602001888860405160200161165f929190612dc2565b60405160208183030381529060405281526020018281526020018473ffffffffffffffffffffffffffffffffffffffff1681526020016116b8604051806040016040528062030d40815260200160011515815250611b25565b8152509150509695505050505050565b6117498363a9059cbb60e01b84846040516024016116e792919061272e565b604051602081830303815290604052907bffffffffffffffffffffffffffffffffffffffffffffffffffffffff19166020820180517bffffffffffffffffffffffffffffffffffffffffffffffffffffffff8381831617835250505050611ba4565b505050565b8060200151816040015180602001905181019061176b9190612e24565b600760008367ffffffffffffffff1667ffffffffffffffff16815260200190815260200160002060009054906101000a900460ff166117e157816040517f213c26780000000000000000000000000000000000000000000000000000000081526004016117d8919061245a565b60405180910390fd5b600860008273ffffffffffffffffffffffffffffffffffffffff1673ffffffffffffffffffffffffffffffffffffffff16815260200190815260200160002060009054906101000a900460ff1661186f57806040517fd0d259760000000000000000000000000000000000000000000000000000000081526004016118669190612384565b60405180910390fd5b826000015160028190555082606001518060200190518101906118929190612ef2565b600590816118a091906130e7565b5082608001516000815181106118b9576118b8612d93565b5b602002602001015160000151600360006101000a81548173ffffffffffffffffffffffffffffffffffffffff021916908373ffffffffffffffffffffffffffffffffffffffff160217905550826080015160008151811061191d5761191c612d93565b5b602002602001015160200151600481905550826020015167ffffffffffffffff1683600001517f90ec910a8f80bb04e184a806e2ae6f8786ef2ae898859a3180f953397edc1201856040015180602001905181019061197c9190612e24565b86606001518060200190518101906119949190612ef2565b87608001516000815181106119ac576119ab612d93565b5b60200260200101516000015188608001516000815181106119d0576119cf612d93565b5b6020026020010151602001516040516119ec949392919061320e565b60405180910390a3505050565b3373ffffffffffffffffffffffffffffffffffffffff168173ffffffffffffffffffffffffffffffffffffffff1603611a67576040517f08c379a0000000000000000000000000000000000000000000000000000000008152600401611a5e906132a6565b60405180910390fd5b80600160006101000a81548173ffffffffffffffffffffffffffffffffffffffff021916908373ffffffffffffffffffffffffffffffffffffffff1602179055508073ffffffffffffffffffffffffffffffffffffffff1660008054906101000a900473ffffffffffffffffffffffffffffffffffffffff1673ffffffffffffffffffffffffffffffffffffffff167fed8889f560326eb138920d842192f0eb3dd22b4f139c87a2c57538e05bae127860405160405180910390a350565b606063181dcf1060e01b82604051602401611b409190613304565b604051602081830303815290604052907bffffffffffffffffffffffffffffffffffffffffffffffffffffffff19166020820180517bffffffffffffffffffffffffffffffffffffffffffffffffffffffff83818316178352505050509050919050565b6000611c06826040518060400160405280602081526020017f5361666545524332303a206c6f772d6c6576656c2063616c6c206661696c65648152508573ffffffffffffffffffffffffffffffffffffffff16611c6b9092919063ffffffff16565b9050600081511115611c665780806020019051810190611c26919061276c565b611c65576040517f08c379a0000000000000000000000000000000000000000000000000000000008152600401611c5c90613391565b60405180910390fd5b5b505050565b6060611c7a8484600085611c83565b90509392505050565b606082471015611cc8576040517f08c379a0000000000000000000000000000000000000000000000000000000008152600401611cbf90613423565b60405180910390fd5b6000808673ffffffffffffffffffffffffffffffffffffffff168587604051611cf19190613474565b60006040518083038185875af1925050503d8060008114611d2e576040519150601f19603f3d011682016040523d82523d6000602084013e611d33565b606091505b5091509150611d4487838387611d50565b92505050949350505050565b60608315611db2576000835103611daa57611d6a85611dc5565b611da9576040517f08c379a0000000000000000000000000000000000000000000000000000000008152600401611da0906134d7565b60405180910390fd5b5b829050611dbd565b611dbc8383611de8565b5b949350505050565b6000808273ffffffffffffffffffffffffffffffffffffffff163b119050919050565b600082511115611dfb5781518083602001fd5b806040517f08c379a0000000000000000000000000000000000000000000000000000000008152600401611e2f91906134f7565b60405180910390fd5b6040518060a00160405280606081526020016060815260200160608152602001600073ffffffffffffffffffffffffffffffffffffffff168152602001606081525090565b6040518060400160405280600073ffffffffffffffffffffffffffffffffffffffff168152602001600081525090565b6000604051905090565b600080fd5b600080fd5b60007fffffffff0000000000000000000000000000000000000000000000000000000082169050919050565b611ef681611ec1565b8114611f0157600080fd5b50565b600081359050611f1381611eed565b92915050565b600060208284031215611f2f57611f2e611eb7565b5b6000611f3d84828501611f04565b91505092915050565b60008115159050919050565b611f5b81611f46565b82525050565b6000602082019050611f766000830184611f52565b92915050565b600067ffffffffffffffff82169050919050565b611f9981611f7c565b8114611fa457600080fd5b50565b600081359050611fb681611f90565b92915050565b600073ffffffffffffffffffffffffffffffffffffffff82169050919050565b6000611fe782611fbc565b9050919050565b611ff781611fdc565b811461200257600080fd5b50565b60008135905061201481611fee565b92915050565b600080fd5b600080fd5b600080fd5b60008083601f84011261203f5761203e61201a565b5b8235905067ffffffffffffffff81111561205c5761205b61201f565b5b60208301915083600182028301111561207857612077612024565b5b9250929050565b6000819050919050565b6120928161207f565b811461209d57600080fd5b50565b6000813590506120af81612089565b92915050565b60008060008060008060a087890312156120d2576120d1611eb7565b5b60006120e089828a01611fa7565b96505060206120f189828a01612005565b955050604087013567ffffffffffffffff81111561211257612111611ebc565b5b61211e89828a01612029565b9450945050606061213189828a01612005565b925050608061214289828a016120a0565b9150509295509295509295565b6000819050919050565b6121628161214f565b82525050565b600060208201905061217d6000830184612159565b92915050565b600081519050919050565b600082825260208201905092915050565b60005b838110156121bd5780820151818401526020810190506121a2565b60008484015250505050565b6000601f19601f8301169050919050565b60006121e582612183565b6121ef818561218e565b93506121ff81856020860161219f565b612208816121c9565b840191505092915050565b61221c81611fdc565b82525050565b61222b8161207f565b82525050565b60006080820190506122466000830187612159565b818103602083015261225881866121da565b90506122676040830185612213565b6122746060830184612222565b95945050505050565b6000806040838503121561229457612293611eb7565b5b60006122a285828601612005565b92505060206122b385828601612005565b9150509250929050565b6000602082840312156122d3576122d2611eb7565b5b60006122e184828501611fa7565b91505092915050565b600060208284031215612300576122ff611eb7565b5b600061230e84828501612005565b91505092915050565b600080fd5b600060a0828403121561233257612331612317565b5b81905092915050565b60006020828403121561235157612350611eb7565b5b600082013567ffffffffffffffff81111561236f5761236e611ebc565b5b61237b8482850161231c565b91505092915050565b60006020820190506123996000830184612213565b92915050565b6123a881611f46565b81146123b357600080fd5b50565b6000813590506123c58161239f565b92915050565b600080604083850312156123e2576123e1611eb7565b5b60006123f085828601611fa7565b9250506020612401858286016123b6565b9150509250929050565b6000806040838503121561242257612421611eb7565b5b600061243085828601612005565b9250506020612441858286016123b6565b9150509250929050565b61245481611f7c565b82525050565b600060208201905061246f600083018461244b565b92915050565b60008151905061248481611fee565b92915050565b6000602082840312156124a05761249f611eb7565b5b60006124ae84828501612475565b91505092915050565b600081519050919050565b600082825260208201905092915050565b60006124de826124b7565b6124e881856124c2565b93506124f881856020860161219f565b612501816121c9565b840191505092915050565b600081519050919050565b600082825260208201905092915050565b6000819050602082019050919050565b61254181611fdc565b82525050565b6125508161207f565b82525050565b60408201600082015161256c6000850182612538565b50602082015161257f6020850182612547565b50505050565b60006125918383612556565b60408301905092915050565b6000602082019050919050565b60006125b58261250c565b6125bf8185612517565b93506125ca83612528565b8060005b838110156125fb5781516125e28882612585565b97506125ed8361259d565b9250506001810190506125ce565b5085935050505092915050565b600060a083016000830151848203600086015261262582826124d3565b9150506020830151848203602086015261263f82826124d3565b9150506040830151848203604086015261265982826125aa565b915050606083015161266e6060860182612538565b506080830151848203608086015261268682826124d3565b9150508091505092915050565b60006040820190506126a8600083018561244b565b81810360208301526126ba8184612608565b90509392505050565b6000815190506126d281612089565b92915050565b6000602082840312156126ee576126ed611eb7565b5b60006126fc848285016126c3565b91505092915050565b600060408201905061271a6000830185612222565b6127276020830184612222565b9392505050565b60006040820190506127436000830185612213565b6127506020830184612222565b9392505050565b6000815190506127668161239f565b92915050565b60006020828403121561278257612781611eb7565b5b600061279084828501612757565b91505092915050565b6127a28161214f565b81146127ad57600080fd5b50565b6000815190506127bf81612799565b92915050565b6000602082840312156127db576127da611eb7565b5b60006127e9848285016127b0565b91505092915050565b82818337600083830152505050565b600061280d838561218e565b935061281a8385846127f2565b612823836121c9565b840190509392505050565b600060c082019050612843600083018a612213565b818103602083015261285681888a612801565b90506128656040830187612213565b6128726060830186612222565b61287f6080830185612213565b61288c60a0830184612222565b98975050505050505050565b7f4e487b7100000000000000000000000000000000000000000000000000000000600052602260045260246000fd5b600060028204905060018216806128df57607f821691505b6020821081036128f2576128f1612898565b5b50919050565b600081905092915050565b50565b60006129136000836128f8565b915061291e82612903565b600082019050919050565b600061293482612906565b9150819050919050565b60006060820190506129536000830186612213565b6129606020830185612213565b61296d6040830184612222565b949350505050565b7f4d7573742062652070726f706f736564206f776e657200000000000000000000600082015250565b60006129ab60168361218e565b91506129b682612975565b602082019050919050565b600060208201905081810360008301526129da8161299e565b9050919050565b600080fd5b7f4e487b7100000000000000000000000000000000000000000000000000000000600052604160045260246000fd5b612a1e826121c9565b810181811067ffffffffffffffff82111715612a3d57612a3c6129e6565b5b80604052505050565b6000612a50611ead565b9050612a5c8282612a15565b919050565b600080fd5b600081359050612a7581612799565b92915050565b600080fd5b600067ffffffffffffffff821115612a9b57612a9a6129e6565b5b612aa4826121c9565b9050602081019050919050565b6000612ac4612abf84612a80565b612a46565b905082815260208101848484011115612ae057612adf612a7b565b5b612aeb8482856127f2565b509392505050565b600082601f830112612b0857612b0761201a565b5b8135612b18848260208601612ab1565b91505092915050565b600067ffffffffffffffff821115612b3c57612b3b6129e6565b5b602082029050602081019050919050565b600060408284031215612b6357612b626129e1565b5b612b6d6040612a46565b90506000612b7d84828501612005565b6000830152506020612b91848285016120a0565b60208301525092915050565b6000612bb0612bab84612b21565b612a46565b90508083825260208201905060408402830185811115612bd357612bd2612024565b5b835b81811015612bfc5780612be88882612b4d565b845260208401935050604081019050612bd5565b5050509392505050565b600082601f830112612c1b57612c1a61201a565b5b8135612c2b848260208601612b9d565b91505092915050565b600060a08284031215612c4a57612c496129e1565b5b612c5460a0612a46565b90506000612c6484828501612a66565b6000830152506020612c7884828501611fa7565b602083015250604082013567ffffffffffffffff811115612c9c57612c9b612a61565b5b612ca884828501612af3565b604083015250606082013567ffffffffffffffff811115612ccc57612ccb612a61565b5b612cd884828501612af3565b606083015250608082013567ffffffffffffffff811115612cfc57612cfb612a61565b5b612d0884828501612c06565b60808301525092915050565b6000612d203683612c34565b9050919050565b7f4f6e6c792063616c6c61626c65206279206f776e657200000000000000000000600082015250565b6000612d5d60168361218e565b9150612d6882612d27565b602082019050919050565b60006020820190508181036000830152612d8c81612d50565b9050919050565b7f4e487b7100000000000000000000000000000000000000000000000000000000600052603260045260246000fd5b60006020820190508181036000830152612ddd818486612801565b90509392505050565b6000612df182611fbc565b9050919050565b612e0181612de6565b8114612e0c57600080fd5b50565b600081519050612e1e81612df8565b92915050565b600060208284031215612e3a57612e39611eb7565b5b6000612e4884828501612e0f565b91505092915050565b600067ffffffffffffffff821115612e6c57612e6b6129e6565b5b612e75826121c9565b9050602081019050919050565b6000612e95612e9084612e51565b612a46565b905082815260208101848484011115612eb157612eb0612a7b565b5b612ebc84828561219f565b509392505050565b600082601f830112612ed957612ed861201a565b5b8151612ee9848260208601612e82565b91505092915050565b600060208284031215612f0857612f07611eb7565b5b600082015167ffffffffffffffff811115612f2657612f25611ebc565b5b612f3284828501612ec4565b91505092915050565b60008190508160005260206000209050919050565b60006020601f8301049050919050565b600082821b905092915050565b600060088302612f9d7fffffffffffffffffffffffffffffffffffffffffffffffffffffffffffffffff82612f60565b612fa78683612f60565b95508019841693508086168417925050509392505050565b6000819050919050565b6000612fe4612fdf612fda8461207f565b612fbf565b61207f565b9050919050565b6000819050919050565b612ffe83612fc9565b61301261300a82612feb565b848454612f6d565b825550505050565b600090565b61302761301a565b613032818484612ff5565b505050565b5b818110156130565761304b60008261301f565b600181019050613038565b5050565b601f82111561309b5761306c81612f3b565b61307584612f50565b81016020851015613084578190505b61309861309085612f50565b830182613037565b50505b505050565b600082821c905092915050565b60006130be600019846008026130a0565b1980831691505092915050565b60006130d783836130ad565b9150826002028217905092915050565b6130f082612183565b67ffffffffffffffff811115613109576131086129e6565b5b61311382546128c7565b61311e82828561305a565b600060209050601f831160018114613151576000841561313f578287015190505b61314985826130cb565b8655506131b1565b601f19841661315f86612f3b565b60005b8281101561318757848901518255600182019150602085019450602081019050613162565b868310156131a457848901516131a0601f8916826130ad565b8355505b6001600288020188555050505b505050505050565b60006131d46131cf6131ca84611fbc565b612fbf565b611fbc565b9050919050565b60006131e6826131b9565b9050919050565b60006131f8826131db565b9050919050565b613208816131ed565b82525050565b600060808201905061322360008301876131ff565b818103602083015261323581866121da565b90506132446040830185612213565b6132516060830184612222565b95945050505050565b7f43616e6e6f74207472616e7366657220746f2073656c66000000000000000000600082015250565b600061329060178361218e565b915061329b8261325a565b602082019050919050565b600060208201905081810360008301526132bf81613283565b9050919050565b6132cf81611f46565b82525050565b6040820160008201516132eb6000850182612547565b5060208201516132fe60208501826132c6565b50505050565b600060408201905061331960008301846132d5565b92915050565b7f5361666545524332303a204552433230206f7065726174696f6e20646964206e60008201527f6f74207375636365656400000000000000000000000000000000000000000000602082015250565b600061337b602a8361218e565b91506133868261331f565b604082019050919050565b600060208201905081810360008301526133aa8161336e565b9050919050565b7f416464726573733a20696e73756666696369656e742062616c616e636520666f60008201527f722063616c6c0000000000000000000000000000000000000000000000000000602082015250565b600061340d60268361218e565b9150613418826133b1565b604082019050919050565b6000602082019050818103600083015261343c81613400565b9050919050565b600061344e826124b7565b61345881856128f8565b935061346881856020860161219f565b80840191505092915050565b60006134808284613443565b915081905092915050565b7f416464726573733a2063616c6c20746f206e6f6e2d636f6e7472616374000000600082015250565b60006134c1601d8361218e565b91506134cc8261348b565b602082019050919050565b600060208201905081810360008301526134f0816134b4565b9050919050565b6000602082019050818103600083015261351181846121da565b90509291505056fea264697066735822122017cfdf27aba512004737b5a446e7b1df120540d444e4fdebf1dacc931cc1e55b64736f6c63430008180033",
  "linkReferences": {},
  "deployedLinkReferences": {}
}